{
  "_format": "hh3-artifact-1",
  "contractName": "GemToken",
  "sourceName": "contracts/GemToken.sol",
  "abi": [
    {
      "inputs": [
        {
          "internalType": "address",
          "name": "initialOwner",
          "type": "address"
        }
      ],
      "stateMutability": "nonpayable",
      "type": "constructor"
    },
    {
      "inputs": [
        {
          "internalType": "address",
          "name": "spender",
          "type": "address"
        },
        {
          "internalType": "uint256",
          "name": "allowance",
          "type": "uint256"
        },
        {
          "internalType": "uint256",
          "name": "needed",
          "type": "uint256"
        }
      ],
      "name": "ERC20InsufficientAllowance",
      "type": "error"
    },
    {
      "inputs": [
        {
          "internalType": "address",
          "name": "sender",
          "type": "address"
        },
        {
          "internalType": "uint256",
          "name": "balance",
          "type": "uint256"
        },
        {
          "internalType": "uint256",
          "name": "needed",
          "type": "uint256"
        }
      ],
      "name": "ERC20InsufficientBalance",
      "type": "error"
    },
    {
      "inputs": [
        {
          "internalType": "address",
          "name": "approver",
          "type": "address"
        }
      ],
      "name": "ERC20InvalidApprover",
      "type": "error"
    },
    {
      "inputs": [
        {
          "internalType": "address",
          "name": "receiver",
          "type": "address"
        }
      ],
      "name": "ERC20InvalidReceiver",
      "type": "error"
    },
    {
      "inputs": [
        {
          "internalType": "address",
          "name": "sender",
          "type": "address"
        }
      ],
      "name": "ERC20InvalidSender",
      "type": "error"
    },
    {
      "inputs": [
        {
          "internalType": "address",
          "name": "spender",
          "type": "address"
        }
      ],
      "name": "ERC20InvalidSpender",
      "type": "error"
    },
    {
      "inputs": [
        {
          "internalType": "address",
          "name": "owner",
          "type": "address"
        }
      ],
      "name": "OwnableInvalidOwner",
      "type": "error"
    },
    {
      "inputs": [
        {
          "internalType": "address",
          "name": "account",
          "type": "address"
        }
      ],
      "name": "OwnableUnauthorizedAccount",
      "type": "error"
    },
    {
      "anonymous": false,
      "inputs": [
        {
          "indexed": true,
          "internalType": "address",
          "name": "owner",
          "type": "address"
        },
        {
          "indexed": true,
          "internalType": "address",
          "name": "spender",
          "type": "address"
        },
        {
          "indexed": false,
          "internalType": "uint256",
          "name": "value",
          "type": "uint256"
        }
      ],
      "name": "Approval",
      "type": "event"
    },
    {
      "anonymous": false,
      "inputs": [
        {
          "indexed": true,
          "internalType": "address",
          "name": "previousOwner",
          "type": "address"
        },
        {
          "indexed": true,
          "internalType": "address",
          "name": "newOwner",
          "type": "address"
        }
      ],
      "name": "OwnershipTransferred",
      "type": "event"
    },
    {
      "anonymous": false,
      "inputs": [
        {
          "indexed": true,
          "internalType": "address",
          "name": "from",
          "type": "address"
        },
        {
          "indexed": true,
          "internalType": "address",
          "name": "to",
          "type": "address"
        },
        {
          "indexed": false,
          "internalType": "uint256",
          "name": "value",
          "type": "uint256"
        }
      ],
      "name": "Transfer",
      "type": "event"
    },
    {
      "inputs": [],
      "name": "INITIAL_SUPPLY",
      "outputs": [
        {
          "internalType": "uint256",
          "name": "",
          "type": "uint256"
        }
      ],
      "stateMutability": "view",
      "type": "function"
    },
    {
      "inputs": [
        {
          "internalType": "address",
          "name": "owner",
          "type": "address"
        },
        {
          "internalType": "address",
          "name": "spender",
          "type": "address"
        }
      ],
      "name": "allowance",
      "outputs": [
        {
          "internalType": "uint256",
          "name": "",
          "type": "uint256"
        }
      ],
      "stateMutability": "view",
      "type": "function"
    },
    {
      "inputs": [
        {
          "internalType": "address",
          "name": "spender",
          "type": "address"
        },
        {
          "internalType": "uint256",
          "name": "value",
          "type": "uint256"
        }
      ],
      "name": "approve",
      "outputs": [
        {
          "internalType": "bool",
          "name": "",
          "type": "bool"
        }
      ],
      "stateMutability": "nonpayable",
      "type": "function"
    },
    {
      "inputs": [
        {
          "internalType": "address",
          "name": "account",
          "type": "address"
        }
      ],
      "name": "balanceOf",
      "outputs": [
        {
          "internalType": "uint256",
          "name": "",
          "type": "uint256"
        }
      ],
      "stateMutability": "view",
      "type": "function"
    },
    {
      "inputs": [
        {
          "internalType": "address",
          "name": "from",
          "type": "address"
        },
        {
          "internalType": "uint256",
          "name": "amount",
          "type": "uint256"
        }
      ],
      "name": "burn",
      "outputs": [],
      "stateMutability": "nonpayable",
      "type": "function"
    },
    {
      "inputs": [],
      "name": "decimals",
      "outputs": [
        {
          "internalType": "uint8",
          "name": "",
          "type": "uint8"
        }
      ],
      "stateMutability": "pure",
      "type": "function"
    },
    {
      "inputs": [],
      "name": "getTokenInfo",
      "outputs": [
        {
          "internalType": "string",
          "name": "tokenName",
          "type": "string"
        },
        {
          "internalType": "string",
          "name": "tokenSymbol",
          "type": "string"
        },
        {
          "internalType": "uint8",
          "name": "tokenDecimals",
          "type": "uint8"
        },
        {
          "internalType": "uint256",
          "name": "tokenTotalSupply",
          "type": "uint256"
        }
      ],
      "stateMutability": "view",
      "type": "function"
    },
    {
      "inputs": [
        {
          "internalType": "address",
          "name": "to",
          "type": "address"
        },
        {
          "internalType": "uint256",
          "name": "amount",
          "type": "uint256"
        }
      ],
      "name": "mint",
      "outputs": [],
      "stateMutability": "nonpayable",
      "type": "function"
    },
    {
      "inputs": [],
      "name": "name",
      "outputs": [
        {
          "internalType": "string",
          "name": "",
          "type": "string"
        }
      ],
      "stateMutability": "view",
      "type": "function"
    },
    {
      "inputs": [],
      "name": "owner",
      "outputs": [
        {
          "internalType": "address",
          "name": "",
          "type": "address"
        }
      ],
      "stateMutability": "view",
      "type": "function"
    },
    {
      "inputs": [],
      "name": "renounceOwnership",
      "outputs": [],
      "stateMutability": "nonpayable",
      "type": "function"
    },
    {
      "inputs": [],
      "name": "symbol",
      "outputs": [
        {
          "internalType": "string",
          "name": "",
          "type": "string"
        }
      ],
      "stateMutability": "view",
      "type": "function"
    },
    {
      "inputs": [],
      "name": "totalSupply",
      "outputs": [
        {
          "internalType": "uint256",
          "name": "",
          "type": "uint256"
        }
      ],
      "stateMutability": "view",
      "type": "function"
    },
    {
      "inputs": [
        {
          "internalType": "address",
          "name": "to",
          "type": "address"
        },
        {
          "internalType": "uint256",
          "name": "value",
          "type": "uint256"
        }
      ],
      "name": "transfer",
      "outputs": [
        {
          "internalType": "bool",
          "name": "",
          "type": "bool"
        }
      ],
      "stateMutability": "nonpayable",
      "type": "function"
    },
    {
      "inputs": [
        {
          "internalType": "address",
          "name": "from",
          "type": "address"
        },
        {
          "internalType": "address",
          "name": "to",
          "type": "address"
        },
        {
          "internalType": "uint256",
          "name": "value",
          "type": "uint256"
        }
      ],
      "name": "transferFrom",
      "outputs": [
        {
          "internalType": "bool",
          "name": "",
          "type": "bool"
        }
      ],
      "stateMutability": "nonpayable",
      "type": "function"
    },
    {
      "inputs": [
        {
          "internalType": "address",
          "name": "newOwner",
          "type": "address"
        }
      ],
      "name": "transferOwnership",
      "outputs": [],
      "stateMutability": "nonpayable",
      "type": "function"
    }
  ],
  "bytecode": "0x608060405234801561000f575f5ffd5b50604051610dd8380380610dd883398101604081905261002e91610289565b806040518060400160405280600981526020016823b2b6902a37b5b2b760b91b8152506040518060400160405280600381526020016247454d60e81b815250816003908161007c919061034e565b506004610089828261034e565b5050506001600160a01b0381166100ba57604051631e4fbdf760e01b81525f60048201526024015b60405180910390fd5b6100c3816100da565b506100d4816509184e72a00061012b565b5061042d565b600580546001600160a01b038381166001600160a01b0319831681179093556040519116919082907f8be0079c531659141344cd1fd0a4f28419497f9722a3daafe3b4186f6b6457e0905f90a35050565b6001600160a01b0382166101545760405163ec442f0560e01b81525f60048201526024016100b1565b61015f5f8383610163565b5050565b6001600160a01b03831661018d578060025f8282546101829190610408565b909155506101fd9050565b6001600160a01b0383165f90815260208190526040902054818110156101df5760405163391434e360e21b81526001600160a01b038516600482015260248101829052604481018390526064016100b1565b6001600160a01b0384165f9081526020819052604090209082900390555b6001600160a01b03821661021957600280548290039055610237565b6001600160a01b0382165f9081526020819052604090208054820190555b816001600160a01b0316836001600160a01b03167fddf252ad1be2c89b69c2b068fc378daa952ba7f163c4a11628f55a4df523b3ef8360405161027c91815260200190565b60405180910390a3505050565b5f60208284031215610299575f5ffd5b81516001600160a01b03811681146102af575f5ffd5b9392505050565b634e487b7160e01b5f52604160045260245ffd5b600181811c908216806102de57607f821691505b6020821081036102fc57634e487b7160e01b5f52602260045260245ffd5b50919050565b601f82111561034957805f5260205f20601f840160051c810160208510156103275750805b601f840160051c820191505b81811015610346575f8155600101610333565b50505b505050565b81516001600160401b03811115610367576103676102b6565b61037b8161037584546102ca565b84610302565b6020601f8211600181146103ad575f83156103965750848201515b5f19600385901b1c1916600184901b178455610346565b5f84815260208120601f198516915b828110156103dc57878501518255602094850194600190920191016103bc565b50848210156103f957868401515f19600387901b60f8161c191681555b50505050600190811b01905550565b8082018082111561042757634e487b7160e01b5f52601160045260245ffd5b92915050565b61099e8061043a5f395ff3fe608060405234801561000f575f5ffd5b50600436106100fb575f3560e01c8063715018a611610093578063a9059cbb11610063578063a9059cbb146101fc578063abb1dc441461020f578063dd62ed3e14610227578063f2fde38b1461025f575f5ffd5b8063715018a6146101be5780638da5cb5b146101c657806395d89b41146101e15780639dc29fac146101e9575f5ffd5b80632ff2e9dc116100ce5780632ff2e9dc14610165578063313ce5671461017257806340c10f191461018157806370a0823114610196575f5ffd5b806306fdde03146100ff578063095ea7b31461011d57806318160ddd1461014057806323b872dd14610152575b5f5ffd5b610107610272565b60405161011491906107f6565b60405180910390f35b61013061012b36600461082a565b610302565b6040519015158152602001610114565b6002545b604051908152602001610114565b610130610160366004610852565b61031b565b6101446509184e72a00081565b60405160068152602001610114565b61019461018f36600461082a565b61033e565b005b6101446101a436600461088c565b6001600160a01b03165f9081526020819052604090205490565b610194610354565b6005546040516001600160a01b039091168152602001610114565b610107610367565b6101946101f736600461082a565b610376565b61013061020a36600461082a565b610388565b610217610395565b60405161011494939291906108a5565b6101446102353660046108e0565b6001600160a01b039182165f90815260016020908152604080832093909416825291909152205490565b61019461026d36600461088c565b6103bd565b60606003805461028190610911565b80601f01602080910402602001604051908101604052809291908181526020018280546102ad90610911565b80156102f85780601f106102cf576101008083540402835291602001916102f8565b820191905f5260205f20905b8154815290600101906020018083116102db57829003601f168201915b5050505050905090565b5f3361030f8185856103ff565b60019150505b92915050565b5f33610328858285610411565b61033385858561048d565b506001949350505050565b6103466104ea565b6103508282610517565b5050565b61035c6104ea565b6103655f61054b565b565b60606004805461028190610911565b61037e6104ea565b610350828261059c565b5f3361030f81858561048d565b6060805f5f6103a2610272565b6103aa610367565b6006600254935093509350935090919293565b6103c56104ea565b6001600160a01b0381166103f357604051631e4fbdf760e01b81525f60048201526024015b60405180910390fd5b6103fc8161054b565b50565b61040c83838360016105d0565b505050565b6001600160a01b038381165f908152600160209081526040808320938616835292905220545f19811015610487578181101561047957604051637dc7a0d960e11b81526001600160a01b038416600482015260248101829052604481018390526064016103ea565b61048784848484035f6105d0565b50505050565b6001600160a01b0383166104b657604051634b637e8f60e11b81525f60048201526024016103ea565b6001600160a01b0382166104df5760405163ec442f0560e01b81525f60048201526024016103ea565b61040c8383836106a2565b6005546001600160a01b031633146103655760405163118cdaa760e01b81523360048201526024016103ea565b6001600160a01b0382166105405760405163ec442f0560e01b81525f60048201526024016103ea565b6103505f83836106a2565b600580546001600160a01b038381166001600160a01b0319831681179093556040519116919082907f8be0079c531659141344cd1fd0a4f28419497f9722a3daafe3b4186f6b6457e0905f90a35050565b6001600160a01b0382166105c557604051634b637e8f60e11b81525f60048201526024016103ea565b610350825f836106a2565b6001600160a01b0384166105f95760405163e602df0560e01b81525f60048201526024016103ea565b6001600160a01b03831661062257604051634a1406b160e11b81525f60048201526024016103ea565b6001600160a01b038085165f908152600160209081526040808320938716835292905220829055801561048757826001600160a01b0316846001600160a01b03167f8c5be1e5ebec7d5bd14f71427d1e84f3dd0314c0f7b2291e5b200ac8c7c3b9258460405161069491815260200190565b60405180910390a350505050565b6001600160a01b0383166106cc578060025f8282546106c19190610949565b9091555061073c9050565b6001600160a01b0383165f908152602081905260409020548181101561071e5760405163391434e360e21b81526001600160a01b038516600482015260248101829052604481018390526064016103ea565b6001600160a01b0384165f9081526020819052604090209082900390555b6001600160a01b03821661075857600280548290039055610776565b6001600160a01b0382165f9081526020819052604090208054820190555b816001600160a01b0316836001600160a01b03167fddf252ad1be2c89b69c2b068fc378daa952ba7f163c4a11628f55a4df523b3ef836040516107bb91815260200190565b60405180910390a3505050565b5f81518084528060208401602086015e5f602082860101526020601f19601f83011685010191505092915050565b602081525f61080860208301846107c8565b9392505050565b80356001600160a01b0381168114610825575f5ffd5b919050565b5f5f6040838503121561083b575f5ffd5b6108448361080f565b946020939093013593505050565b5f5f5f60608486031215610864575f5ffd5b61086d8461080f565b925061087b6020850161080f565b929592945050506040919091013590565b5f6020828403121561089c575f5ffd5b6108088261080f565b608081525f6108b760808301876107c8565b82810360208401526108c981876107c8565b60ff95909516604084015250506060015292915050565b5f5f604083850312156108f1575f5ffd5b6108fa8361080f565b91506109086020840161080f565b90509250929050565b600181811c9082168061092557607f821691505b60208210810361094357634e487b7160e01b5f52602260045260245ffd5b50919050565b8082018082111561031557634e487b7160e01b5f52601160045260245ffdfea2646970667358221220fa1bc3483e3e6b8d485207c65bf20ea2aaf1cffa99fb6357a77e60930751e87664736f6c634300081c0033",
  "linkReferences": {},
  "deployedLinkReferences": {},
  "immutableReferences": {},
  "inputSourceName": "project/contracts/GemToken.sol",
  "buildInfoId": "solc-0_8_28-e27114241cc16c57e2bc3a68bc0c41bb687541c2"
}