{
  "_format": "hh3-artifact-1",
  "contractName": "BlindBox",
  "sourceName": "contracts/BlindBox.sol",
  "abi": [
    {
      "inputs": [
        {
          "internalType": "address",
          "name": "_gemToken",
          "type": "address"
        },
        {
          "internalType": "address",
          "name": "_genesisMecha",
          "type": "address"
        },
        {
          "internalType": "uint256",
          "name": "_mintPrice",
          "type": "uint256"
        },
        {
          "internalType": "address",
          "name": "_owner",
          "type": "address"
        }
      ],
      "stateMutability": "nonpayable",
      "type": "constructor"
    },
    {
      "inputs": [],
      "name": "EnforcedPause",
      "type": "error"
    },
    {
      "inputs": [],
      "name": "ExpectedPause",
      "type": "error"
    },
    {
      "inputs": [
        {
          "internalType": "address",
          "name": "owner",
          "type": "address"
        }
      ],
      "name": "OwnableInvalidOwner",
      "type": "error"
    },
    {
      "inputs": [
        {
          "internalType": "address",
          "name": "account",
          "type": "address"
        }
      ],
      "name": "OwnableUnauthorizedAccount",
      "type": "error"
    },
    {
      "inputs": [],
      "name": "ReentrancyGuardReentrantCall",
      "type": "error"
    },
    {
      "anonymous": false,
      "inputs": [
        {
          "indexed": true,
          "internalType": "address",
          "name": "user",
          "type": "address"
        },
        {
          "indexed": false,
          "internalType": "uint256[]",
          "name": "tokenIds",
          "type": "uint256[]"
        },
        {
          "indexed": false,
          "internalType": "uint256",
          "name": "totalPrice",
          "type": "uint256"
        },
        {
          "indexed": false,
          "internalType": "uint256",
          "name": "timestamp",
          "type": "uint256"
        }
      ],
      "name": "BatchMinted",
      "type": "event"
    },
    {
      "anonymous": false,
      "inputs": [
        {
          "indexed": true,
          "internalType": "address",
          "name": "user",
          "type": "address"
        },
        {
          "indexed": true,
          "internalType": "uint256",
          "name": "tokenId",
          "type": "uint256"
        },
        {
          "indexed": false,
          "internalType": "uint256",
          "name": "price",
          "type": "uint256"
        },
        {
          "indexed": false,
          "internalType": "uint256",
          "name": "timestamp",
          "type": "uint256"
        }
      ],
      "name": "Minted",
      "type": "event"
    },
    {
      "anonymous": false,
      "inputs": [
        {
          "indexed": true,
          "internalType": "address",
          "name": "previousOwner",
          "type": "address"
        },
        {
          "indexed": true,
          "internalType": "address",
          "name": "newOwner",
          "type": "address"
        }
      ],
      "name": "OwnershipTransferred",
      "type": "event"
    },
    {
      "anonymous": false,
      "inputs": [
        {
          "indexed": false,
          "internalType": "address",
          "name": "account",
          "type": "address"
        }
      ],
      "name": "Paused",
      "type": "event"
    },
    {
      "anonymous": false,
      "inputs": [
        {
          "indexed": false,
          "internalType": "uint256",
          "name": "oldPrice",
          "type": "uint256"
        },
        {
          "indexed": false,
          "internalType": "uint256",
          "name": "newPrice",
          "type": "uint256"
        }
      ],
      "name": "PriceUpdated",
      "type": "event"
    },
    {
      "anonymous": false,
      "inputs": [
        {
          "indexed": true,
          "internalType": "address",
          "name": "to",
          "type": "address"
        },
        {
          "indexed": false,
          "internalType": "uint256",
          "name": "amount",
          "type": "uint256"
        }
      ],
      "name": "RevenueWithdrawn",
      "type": "event"
    },
    {
      "anonymous": false,
      "inputs": [
        {
          "indexed": false,
          "internalType": "address",
          "name": "account",
          "type": "address"
        }
      ],
      "name": "Unpaused",
      "type": "event"
    },
    {
      "inputs": [],
      "name": "MAX_MINT_PER_TX",
      "outputs": [
        {
          "internalType": "uint256",
          "name": "",
          "type": "uint256"
        }
      ],
      "stateMutability": "view",
      "type": "function"
    },
    {
      "inputs": [],
      "name": "MAX_SUPPLY",
      "outputs": [
        {
          "internalType": "uint256",
          "name": "",
          "type": "uint256"
        }
      ],
      "stateMutability": "view",
      "type": "function"
    },
    {
      "inputs": [],
      "name": "gemToken",
      "outputs": [
        {
          "internalType": "contract GemToken",
          "name": "",
          "type": "address"
        }
      ],
      "stateMutability": "view",
      "type": "function"
    },
    {
      "inputs": [],
      "name": "genesisMecha",
      "outputs": [
        {
          "internalType": "contract GenesisMecha",
          "name": "",
          "type": "address"
        }
      ],
      "stateMutability": "view",
      "type": "function"
    },
    {
      "inputs": [],
      "name": "getContractInfo",
      "outputs": [
        {
          "internalType": "uint256",
          "name": "currentPrice",
          "type": "uint256"
        },
        {
          "internalType": "uint256",
          "name": "totalSupply",
          "type": "uint256"
        },
        {
          "internalType": "uint256",
          "name": "remainingSupply",
          "type": "uint256"
        },
        {
          "internalType": "uint256",
          "name": "minted",
          "type": "uint256"
        },
        {
          "internalType": "uint256",
          "name": "revenue",
          "type": "uint256"
        },
        {
          "internalType": "bool",
          "name": "soldOut",
          "type": "bool"
        },
        {
          "internalType": "bool",
          "name": "paused",
          "type": "bool"
        }
      ],
      "stateMutability": "view",
      "type": "function"
    },
    {
      "inputs": [],
      "name": "getRemainingIndices",
      "outputs": [
        {
          "internalType": "uint256",
          "name": "",
          "type": "uint256"
        }
      ],
      "stateMutability": "view",
      "type": "function"
    },
    {
      "inputs": [
        {
          "internalType": "address",
          "name": "user",
          "type": "address"
        }
      ],
      "name": "getUserInfo",
      "outputs": [
        {
          "internalType": "uint256",
          "name": "gemBalance",
          "type": "uint256"
        },
        {
          "internalType": "uint256",
          "name": "gemAllowance",
          "type": "uint256"
        },
        {
          "internalType": "uint256",
          "name": "nftBalance",
          "type": "uint256"
        },
        {
          "internalType": "uint256",
          "name": "mintedCount",
          "type": "uint256"
        }
      ],
      "stateMutability": "view",
      "type": "function"
    },
    {
      "inputs": [
        {
          "internalType": "uint256",
          "name": "index",
          "type": "uint256"
        }
      ],
      "name": "isMetadataIndexUsed",
      "outputs": [
        {
          "internalType": "bool",
          "name": "",
          "type": "bool"
        }
      ],
      "stateMutability": "view",
      "type": "function"
    },
    {
      "inputs": [],
      "name": "mintPrice",
      "outputs": [
        {
          "internalType": "uint256",
          "name": "",
          "type": "uint256"
        }
      ],
      "stateMutability": "view",
      "type": "function"
    },
    {
      "inputs": [],
      "name": "owner",
      "outputs": [
        {
          "internalType": "address",
          "name": "",
          "type": "address"
        }
      ],
      "stateMutability": "view",
      "type": "function"
    },
    {
      "inputs": [],
      "name": "pause",
      "outputs": [],
      "stateMutability": "nonpayable",
      "type": "function"
    },
    {
      "inputs": [],
      "name": "paused",
      "outputs": [
        {
          "internalType": "bool",
          "name": "",
          "type": "bool"
        }
      ],
      "stateMutability": "view",
      "type": "function"
    },
    {
      "inputs": [
        {
          "internalType": "uint256",
          "name": "amount",
          "type": "uint256"
        }
      ],
      "name": "purchaseBlindBox",
      "outputs": [],
      "stateMutability": "nonpayable",
      "type": "function"
    },
    {
      "inputs": [],
      "name": "renounceOwnership",
      "outputs": [],
      "stateMutability": "nonpayable",
      "type": "function"
    },
    {
      "inputs": [
        {
          "internalType": "uint256",
          "name": "_newPrice",
          "type": "uint256"
        }
      ],
      "name": "setMintPrice",
      "outputs": [],
      "stateMutability": "nonpayable",
      "type": "function"
    },
    {
      "inputs": [],
      "name": "totalMinted",
      "outputs": [
        {
          "internalType": "uint256",
          "name": "",
          "type": "uint256"
        }
      ],
      "stateMutability": "view",
      "type": "function"
    },
    {
      "inputs": [],
      "name": "totalRevenue",
      "outputs": [
        {
          "internalType": "uint256",
          "name": "",
          "type": "uint256"
        }
      ],
      "stateMutability": "view",
      "type": "function"
    },
    {
      "inputs": [
        {
          "internalType": "address",
          "name": "newOwner",
          "type": "address"
        }
      ],
      "name": "transferOwnership",
      "outputs": [],
      "stateMutability": "nonpayable",
      "type": "function"
    },
    {
      "inputs": [],
      "name": "unpause",
      "outputs": [],
      "stateMutability": "nonpayable",
      "type": "function"
    },
    {
      "inputs": [
        {
          "internalType": "address",
          "name": "",
          "type": "address"
        }
      ],
      "name": "userMintCount",
      "outputs": [
        {
          "internalType": "uint256",
          "name": "",
          "type": "uint256"
        }
      ],
      "stateMutability": "view",
      "type": "function"
    },
    {
      "inputs": [
        {
          "internalType": "address",
          "name": "to",
          "type": "address"
        },
        {
          "internalType": "uint256",
          "name": "amount",
          "type": "uint256"
        }
      ],
      "name": "withdrawRevenue",
      "outputs": [],
      "stateMutability": "nonpayable",
      "type": "function"
    }
  ],
  "bytecode": "0x60c060405234801561000f575f5ffd5b50604051611b1c380380611b1c83398101604081905261002e916101fd565b806001600160a01b03811661005d57604051631e4fbdf760e01b81525f60048201526024015b60405180910390fd5b61006681610193565b50600180556001600160a01b0384166100cd5760405162461bcd60e51b815260206004820152602360248201527f426c696e64426f783a20496e76616c69642067656d20746f6b656e206164647260448201526265737360e81b6064820152608401610054565b6001600160a01b0383166101235760405162461bcd60e51b815260206004820152601f60248201527f426c696e64426f783a20496e76616c6964206d656368612061646472657373006044820152606401610054565b5f82116101725760405162461bcd60e51b815260206004820152601c60248201527f426c696e64426f783a20496e76616c6964206d696e74207072696365000000006044820152606401610054565b506001600160a01b03928316608052911660a0526003556014600855610247565b5f80546001600160a01b038381166001600160a01b0319831681178455604051919092169283917f8be0079c531659141344cd1fd0a4f28419497f9722a3daafe3b4186f6b6457e09190a35050565b80516001600160a01b03811681146101f8575f5ffd5b919050565b5f5f5f5f60808587031215610210575f5ffd5b610219856101e2565b9350610227602086016101e2565b92506040850151915061023c606086016101e2565b905092959194509250565b60805160a05161184b6102d15f395f818161027e015281816104600152818161050e0152818161058e0152818161061401528181610ad501528181610b5f01528181610c220152610d2d01525f81816102ef0152818161034a015281816103d801528181610818015281816108f7015281816109e401528181610eaa0152610ff3015261184b5ff3fe608060405234801561000f575f5ffd5b5060043610610132575f3560e01c80638b63c267116100b4578063bf2d9e0b11610079578063bf2d9e0b146102a0578063d1f774f2146102a9578063ec3ad44d146102b1578063f2fde38b146102c4578063f4a0a528146102d7578063ff2fb57c146102ea575f5ffd5b80638b63c267146102315780638da5cb5b146102445780638ecad72114610268578063a2309ff814610270578063b652d17e14610279575f5ffd5b80636817c76c116100fa5780636817c76c146101c4578063715018a6146101cd5780637cc1f867146101d55780638456cb59146102165780638a952e471461021e575f5ffd5b806332cb6b0c146101365780633950891f146101515780633f4ba83a146101705780635c975abb1461017a5780636386c1c714610191575b5f5ffd5b61013e601481565b6040519081526020015b60405180910390f35b61013e61015f366004611575565b60066020525f908152604090205481565b610178610311565b005b60025460ff165b6040519015158152602001610148565b6101a461019f366004611575565b610323565b604080519485526020850193909352918301526060820152608001610148565b61013e60035481565b6101786104f1565b6101dd610502565b6040805197885260208801969096529486019390935260608501919091526080840152151560a0830152151560c082015260e001610148565b610178610708565b61017861022c366004611595565b610718565b61017861023f3660046115ac565b610e35565b5f546001600160a01b03165b6040516001600160a01b039091168152602001610148565b61013e600a81565b61013e60045481565b6102507f000000000000000000000000000000000000000000000000000000000000000081565b61013e60055481565b60085461013e565b6101816102bf366004611595565b6110f2565b6101786102d2366004611575565b611166565b6101786102e5366004611595565b6111a0565b6102507f000000000000000000000000000000000000000000000000000000000000000081565b61031961123c565b610321611268565b565b6040516370a0823160e01b81526001600160a01b0382811660048301525f918291829182917f000000000000000000000000000000000000000000000000000000000000000016906370a0823190602401602060405180830381865afa15801561038f573d5f5f3e3d5ffd5b505050506040513d601f19601f820116820180604052508101906103b391906115d4565b604051636eb1769f60e11b81526001600160a01b0387811660048301523060248301527f0000000000000000000000000000000000000000000000000000000000000000169063dd62ed3e90604401602060405180830381865afa15801561041d573d5f5f3e3d5ffd5b505050506040513d601f19601f8201168201806040525081019061044191906115d4565b6040516370a0823160e01b81526001600160a01b0388811660048301527f000000000000000000000000000000000000000000000000000000000000000016906370a0823190602401602060405180830381865afa1580156104a5573d5f5f3e3d5ffd5b505050506040513d601f19601f820116820180604052508101906104c991906115d4565b6001600160a01b03979097165f90815260066020526040902054919790969550909350915050565b6104f961123c565b6103215f6112ba565b5f5f5f5f5f5f5f6003547f00000000000000000000000000000000000000000000000000000000000000006001600160a01b03166332cb6b0c6040518163ffffffff1660e01b8152600401602060405180830381865afa158015610568573d5f5f3e3d5ffd5b505050506040513d601f19601f8201168201806040525081019061058c91906115d4565b7f00000000000000000000000000000000000000000000000000000000000000006001600160a01b031663da0239a66040518163ffffffff1660e01b8152600401602060405180830381865afa1580156105e8573d5f5f3e3d5ffd5b505050506040513d601f19601f8201168201806040525081019061060c91906115d4565b6004546005547f00000000000000000000000000000000000000000000000000000000000000006001600160a01b0316632da5ea176040518163ffffffff1660e01b8152600401602060405180830381865afa15801561066e573d5f5f3e3d5ffd5b505050506040513d601f19601f8201168201806040525081019061069291906115eb565b306001600160a01b0316635c975abb6040518163ffffffff1660e01b8152600401602060405180830381865afa1580156106ce573d5f5f3e3d5ffd5b505050506040513d601f19601f820116820180604052508101906106f291906115eb565b959d949c50929a50909850965094509092509050565b61071061123c565b610321611309565b610720611346565b610728611370565b5f811180156107385750600a8111155b6107895760405162461bcd60e51b815260206004820152601860248201527f426c696e64426f783a20496e76616c696420616d6f756e74000000000000000060448201526064015b60405180910390fd5b8060085410156107e75760405162461bcd60e51b815260206004820152602360248201527f426c696e64426f783a204e6f7420656e6f756768204e4654732072656d61696e604482015262696e6760e81b6064820152608401610780565b5f816003546107f6919061161e565b6040516370a0823160e01b815233600482015290915081906001600160a01b037f000000000000000000000000000000000000000000000000000000000000000016906370a0823190602401602060405180830381865afa15801561085d573d5f5f3e3d5ffd5b505050506040513d601f19601f8201168201806040525081019061088191906115d4565b10156108da5760405162461bcd60e51b815260206004820152602260248201527f426c696e64426f783a20496e73756666696369656e742047454d2062616c616e604482015261636560f01b6064820152608401610780565b604051636eb1769f60e11b815233600482015230602482015281907f00000000000000000000000000000000000000000000000000000000000000006001600160a01b03169063dd62ed3e90604401602060405180830381865afa158015610944573d5f5f3e3d5ffd5b505050506040513d601f19601f8201168201806040525081019061096891906115d4565b10156109c25760405162461bcd60e51b8152602060048201526024808201527f426c696e64426f783a20496e73756666696369656e742047454d20616c6c6f77604482015263616e636560e01b6064820152608401610780565b6040516323b872dd60e01b8152336004820152306024820152604481018290527f00000000000000000000000000000000000000000000000000000000000000006001600160a01b0316906323b872dd906064016020604051808303815f875af1158015610a32573d5f5f3e3d5ffd5b505050506040513d601f19601f82011682018060405250810190610a5691906115eb565b610aa25760405162461bcd60e51b815260206004820152601d60248201527f426c696e64426f783a2047454d207472616e73666572206661696c65640000006044820152606401610780565b81600103610c04575f610ab3611394565b6040516340d097c360e01b81523360048201529091505f906001600160a01b037f000000000000000000000000000000000000000000000000000000000000000016906340d097c3906024016020604051808303815f875af1158015610b1b573d5f5f3e3d5ffd5b505050506040513d601f19601f82011682018060405250810190610b3f91906115d4565b6040516317a97cd760e01b815260048101829052602481018490529091507f00000000000000000000000000000000000000000000000000000000000000006001600160a01b0316906317a97cd7906044015f604051808303815f87803b158015610ba8575f5ffd5b505af1158015610bba573d5f5f3e3d5ffd5b5050600354604080519182524260208301528493503392507f5a3358a3d27a5373c0df2604662088d37894d56b7cfd27f315770440f4e0d919910160405180910390a35050610dd9565b6040516309792c4960e31b8152336004820152602481018390525f907f00000000000000000000000000000000000000000000000000000000000000006001600160a01b031690634bc96248906044015f604051808303815f875af1158015610c6f573d5f5f3e3d5ffd5b505050506040513d5f823e601f3d908101601f19168201604052610c96919081019061164f565b90505f8367ffffffffffffffff811115610cb257610cb261163b565b604051908082528060200260200182016040528015610cdb578160200160208202803683370190505b5090505f5b84811015610d1557610cf0611394565b828281518110610d0257610d02611717565b6020908102919091010152600101610ce0565b506040516379ff0c3d60e01b81526001600160a01b037f000000000000000000000000000000000000000000000000000000000000000016906379ff0c3d90610d649085908590600401611765565b5f604051808303815f87803b158015610d7b575f5ffd5b505af1158015610d8d573d5f5f3e3d5ffd5b50505050336001600160a01b03167fa8ce8eed9629ee5e5119ca54195bc3c9e61f1a3d80943ccdc04dcb9223b554a1838542604051610dce93929190611792565b60405180910390a250505b8160045f828254610dea91906117b6565b925050819055508060055f828254610e0291906117b6565b9091555050335f9081526006602052604081208054849290610e259084906117b6565b9091555050600180555050565b50565b610e3d61123c565b6001600160a01b038216610e935760405162461bcd60e51b815260206004820152601b60248201527f426c696e64426f783a20496e76616c696420726563697069656e7400000000006044820152606401610780565b6040516370a0823160e01b81523060048201525f907f00000000000000000000000000000000000000000000000000000000000000006001600160a01b0316906370a0823190602401602060405180830381865afa158015610ef7573d5f5f3e3d5ffd5b505050506040513d601f19601f82011682018060405250810190610f1b91906115d4565b90505f8111610f6c5760405162461bcd60e51b815260206004820181905260248201527f426c696e64426f783a204e6f20726576656e756520746f2077697468647261776044820152606401610780565b5f8215610f795782610f7b565b815b905081811115610fcd5760405162461bcd60e51b815260206004820152601e60248201527f426c696e64426f783a20496e73756666696369656e742062616c616e636500006044820152606401610780565b60405163a9059cbb60e01b81526001600160a01b038581166004830152602482018390527f0000000000000000000000000000000000000000000000000000000000000000169063a9059cbb906044016020604051808303815f875af1158015611039573d5f5f3e3d5ffd5b505050506040513d601f19601f8201168201806040525081019061105d91906115eb565b6110a95760405162461bcd60e51b815260206004820152601960248201527f426c696e64426f783a205472616e73666572206661696c6564000000000000006044820152606401610780565b836001600160a01b03167f86a5cc8fe9af9ae68fb50f62885307a7755a30cbd290131644377f0bd94a7181826040516110e491815260200190565b60405180910390a250505050565b5f60018210158015611105575060148211155b6111515760405162461bcd60e51b815260206004820152601760248201527f426c696e64426f783a20496e76616c696420696e6465780000000000000000006044820152606401610780565b505f9081526007602052604090205460ff1690565b61116e61123c565b6001600160a01b03811661119757604051631e4fbdf760e01b81525f6004820152602401610780565b610e32816112ba565b6111a861123c565b5f81116111f75760405162461bcd60e51b815260206004820152601760248201527f426c696e64426f783a20496e76616c69642070726963650000000000000000006044820152606401610780565b600380549082905560408051828152602081018490527f945c1c4e99aa89f648fbfe3df471b916f719e16d960fcec0737d4d56bd696838910160405180910390a15050565b5f546001600160a01b031633146103215760405163118cdaa760e01b8152336004820152602401610780565b611270611537565b6002805460ff191690557f5db9ee0a495bf2e6ff9c91a7834c1ba4fdd244a5e8aa4e537bd38aeae4b073aa335b6040516001600160a01b03909116815260200160405180910390a1565b5f80546001600160a01b038381166001600160a01b0319831681178455604051919092169283917f8be0079c531659141344cd1fd0a4f28419497f9722a3daafe3b4186f6b6457e09190a35050565b611311611370565b6002805460ff191660011790557f62e78cea01bee320cd4e420270b5ea74000d11b0c9f74754ebdbfc544b05a25861129d3390565b60026001540361136957604051633ee5aeb560e01b815260040160405180910390fd5b6002600155565b60025460ff16156103215760405163d93c066560e01b815260040160405180910390fd5b5f5f600854116113fb5760405162461bcd60e51b815260206004820152602c60248201527f426c696e64426f783a204e6f206d6f7265206d6574616461746120696e64696360448201526b657320617661696c61626c6560a01b6064820152608401610780565b600854600454604080514260208083019190915244828401526060808301949094526bffffffffffffffffffffffff1933851b811660808401523290941b90931660948201528151808203608801815260a890910190915280519101205f91611463916117c9565b90505f60015b601481116114e0575f8181526007602052604090205460ff166114ce578282036114c0575f818152600760205260408120805460ff1916600117905560088054916114b3836117e8565b9091555090949350505050565b816114ca816117fd565b9250505b806114d8816117fd565b915050611469565b5060405162461bcd60e51b815260206004820152602560248201527f426c696e64426f783a204661696c656420746f2066696e6420756e75736564206044820152640d2dcc8caf60db1b6064820152608401610780565b60025460ff1661032157604051638dfc202b60e01b815260040160405180910390fd5b80356001600160a01b0381168114611570575f5ffd5b919050565b5f60208284031215611585575f5ffd5b61158e8261155a565b9392505050565b5f602082840312156115a5575f5ffd5b5035919050565b5f5f604083850312156115bd575f5ffd5b6115c68361155a565b946020939093013593505050565b5f602082840312156115e4575f5ffd5b5051919050565b5f602082840312156115fb575f5ffd5b8151801515811461158e575f5ffd5b634e487b7160e01b5f52601160045260245ffd5b80820281158282048414176116355761163561160a565b92915050565b634e487b7160e01b5f52604160045260245ffd5b5f6020828403121561165f575f5ffd5b815167ffffffffffffffff811115611675575f5ffd5b8201601f81018413611685575f5ffd5b805167ffffffffffffffff81111561169f5761169f61163b565b8060051b604051601f19603f830116810181811067ffffffffffffffff821117156116cc576116cc61163b565b6040529182526020818401810192908101878411156116e9575f5ffd5b6020850194505b8385101561170c578451808252602095860195909350016116f0565b509695505050505050565b634e487b7160e01b5f52603260045260245ffd5b5f8151808452602084019350602083015f5b8281101561175b57815186526020958601959091019060010161173d565b5093949350505050565b604081525f611777604083018561172b565b8281036020840152611789818561172b565b95945050505050565b606081525f6117a4606083018661172b565b60208301949094525060400152919050565b808201808211156116355761163561160a565b5f826117e357634e487b7160e01b5f52601260045260245ffd5b500690565b5f816117f6576117f661160a565b505f190190565b5f6001820161180e5761180e61160a565b506001019056fea264697066735822122036cb6078f83ea9d0b5ce86ebc2c8f82cd3313f564a0a9f23062411ce226b90c464736f6c634300081c0033",
  "linkReferences": {},
  "deployedLinkReferences": {},
  "immutableReferences": {
    "7884": [
      {
        "length": 32,
        "start": 751
      },
      {
        "length": 32,
        "start": 842
      },
      {
        "length": 32,
        "start": 984
      },
      {
        "length": 32,
        "start": 2072
      },
      {
        "length": 32,
        "start": 2295
      },
      {
        "length": 32,
        "start": 2532
      },
      {
        "length": 32,
        "start": 3754
      },
      {
        "length": 32,
        "start": 4083
      }
    ],
    "7887": [
      {
        "length": 32,
        "start": 638
      },
      {
        "length": 32,
        "start": 1120
      },
      {
        "length": 32,
        "start": 1294
      },
      {
        "length": 32,
        "start": 1422
      },
      {
        "length": 32,
        "start": 1556
      },
      {
        "length": 32,
        "start": 2773
      },
      {
        "length": 32,
        "start": 2911
      },
      {
        "length": 32,
        "start": 3106
      },
      {
        "length": 32,
        "start": 3373
      }
    ]
  },
  "inputSourceName": "project/contracts/BlindBox.sol",
  "buildInfoId": "solc-0_8_28-0b498260dad08de246721557efaa4edc20ce808f"
}