{
  "_format": "hh3-artifact-1",
  "contractName": "GenesisMecha",
  "sourceName": "contracts/GenesisMecha.sol",
  "abi": [
    {
      "inputs": [
        {
          "internalType": "address",
          "name": "defaultAdmin",
          "type": "address"
        },
        {
          "internalType": "address",
          "name": "minter",
          "type": "address"
        }
      ],
      "stateMutability": "nonpayable",
      "type": "constructor"
    },
    {
      "inputs": [],
      "name": "AccessControlBadConfirmation",
      "type": "error"
    },
    {
      "inputs": [
        {
          "internalType": "address",
          "name": "account",
          "type": "address"
        },
        {
          "internalType": "bytes32",
          "name": "neededRole",
          "type": "bytes32"
        }
      ],
      "name": "AccessControlUnauthorizedAccount",
      "type": "error"
    },
    {
      "inputs": [
        {
          "internalType": "address",
          "name": "sender",
          "type": "address"
        },
        {
          "internalType": "uint256",
          "name": "tokenId",
          "type": "uint256"
        },
        {
          "internalType": "address",
          "name": "owner",
          "type": "address"
        }
      ],
      "name": "ERC721IncorrectOwner",
      "type": "error"
    },
    {
      "inputs": [
        {
          "internalType": "address",
          "name": "operator",
          "type": "address"
        },
        {
          "internalType": "uint256",
          "name": "tokenId",
          "type": "uint256"
        }
      ],
      "name": "ERC721InsufficientApproval",
      "type": "error"
    },
    {
      "inputs": [
        {
          "internalType": "address",
          "name": "approver",
          "type": "address"
        }
      ],
      "name": "ERC721InvalidApprover",
      "type": "error"
    },
    {
      "inputs": [
        {
          "internalType": "address",
          "name": "operator",
          "type": "address"
        }
      ],
      "name": "ERC721InvalidOperator",
      "type": "error"
    },
    {
      "inputs": [
        {
          "internalType": "address",
          "name": "owner",
          "type": "address"
        }
      ],
      "name": "ERC721InvalidOwner",
      "type": "error"
    },
    {
      "inputs": [
        {
          "internalType": "address",
          "name": "receiver",
          "type": "address"
        }
      ],
      "name": "ERC721InvalidReceiver",
      "type": "error"
    },
    {
      "inputs": [
        {
          "internalType": "address",
          "name": "sender",
          "type": "address"
        }
      ],
      "name": "ERC721InvalidSender",
      "type": "error"
    },
    {
      "inputs": [
        {
          "internalType": "uint256",
          "name": "tokenId",
          "type": "uint256"
        }
      ],
      "name": "ERC721NonexistentToken",
      "type": "error"
    },
    {
      "anonymous": false,
      "inputs": [
        {
          "indexed": true,
          "internalType": "address",
          "name": "owner",
          "type": "address"
        },
        {
          "indexed": true,
          "internalType": "address",
          "name": "approved",
          "type": "address"
        },
        {
          "indexed": true,
          "internalType": "uint256",
          "name": "tokenId",
          "type": "uint256"
        }
      ],
      "name": "Approval",
      "type": "event"
    },
    {
      "anonymous": false,
      "inputs": [
        {
          "indexed": true,
          "internalType": "address",
          "name": "owner",
          "type": "address"
        },
        {
          "indexed": true,
          "internalType": "address",
          "name": "operator",
          "type": "address"
        },
        {
          "indexed": false,
          "internalType": "bool",
          "name": "approved",
          "type": "bool"
        }
      ],
      "name": "ApprovalForAll",
      "type": "event"
    },
    {
      "anonymous": false,
      "inputs": [
        {
          "indexed": false,
          "internalType": "string",
          "name": "newBaseURI",
          "type": "string"
        }
      ],
      "name": "BaseURIUpdated",
      "type": "event"
    },
    {
      "anonymous": false,
      "inputs": [
        {
          "indexed": false,
          "internalType": "uint256",
          "name": "_fromTokenId",
          "type": "uint256"
        },
        {
          "indexed": false,
          "internalType": "uint256",
          "name": "_toTokenId",
          "type": "uint256"
        }
      ],
      "name": "BatchMetadataUpdate",
      "type": "event"
    },
    {
      "anonymous": false,
      "inputs": [
        {
          "indexed": true,
          "internalType": "uint256",
          "name": "tokenId",
          "type": "uint256"
        },
        {
          "indexed": true,
          "internalType": "address",
          "name": "to",
          "type": "address"
        },
        {
          "indexed": false,
          "internalType": "uint256",
          "name": "metadataIndex",
          "type": "uint256"
        }
      ],
      "name": "MechaCreated",
      "type": "event"
    },
    {
      "anonymous": false,
      "inputs": [
        {
          "indexed": false,
          "internalType": "uint256",
          "name": "_tokenId",
          "type": "uint256"
        }
      ],
      "name": "MetadataUpdate",
      "type": "event"
    },
    {
      "anonymous": false,
      "inputs": [
        {
          "indexed": true,
          "internalType": "bytes32",
          "name": "role",
          "type": "bytes32"
        },
        {
          "indexed": true,
          "internalType": "bytes32",
          "name": "previousAdminRole",
          "type": "bytes32"
        },
        {
          "indexed": true,
          "internalType": "bytes32",
          "name": "newAdminRole",
          "type": "bytes32"
        }
      ],
      "name": "RoleAdminChanged",
      "type": "event"
    },
    {
      "anonymous": false,
      "inputs": [
        {
          "indexed": true,
          "internalType": "bytes32",
          "name": "role",
          "type": "bytes32"
        },
        {
          "indexed": true,
          "internalType": "address",
          "name": "account",
          "type": "address"
        },
        {
          "indexed": true,
          "internalType": "address",
          "name": "sender",
          "type": "address"
        }
      ],
      "name": "RoleGranted",
      "type": "event"
    },
    {
      "anonymous": false,
      "inputs": [
        {
          "indexed": true,
          "internalType": "bytes32",
          "name": "role",
          "type": "bytes32"
        },
        {
          "indexed": true,
          "internalType": "address",
          "name": "account",
          "type": "address"
        },
        {
          "indexed": true,
          "internalType": "address",
          "name": "sender",
          "type": "address"
        }
      ],
      "name": "RoleRevoked",
      "type": "event"
    },
    {
      "anonymous": false,
      "inputs": [
        {
          "indexed": true,
          "internalType": "address",
          "name": "from",
          "type": "address"
        },
        {
          "indexed": true,
          "internalType": "address",
          "name": "to",
          "type": "address"
        },
        {
          "indexed": true,
          "internalType": "uint256",
          "name": "tokenId",
          "type": "uint256"
        }
      ],
      "name": "Transfer",
      "type": "event"
    },
    {
      "inputs": [],
      "name": "DEFAULT_ADMIN_ROLE",
      "outputs": [
        {
          "internalType": "bytes32",
          "name": "",
          "type": "bytes32"
        }
      ],
      "stateMutability": "view",
      "type": "function"
    },
    {
      "inputs": [],
      "name": "MAX_SUPPLY",
      "outputs": [
        {
          "internalType": "uint256",
          "name": "",
          "type": "uint256"
        }
      ],
      "stateMutability": "view",
      "type": "function"
    },
    {
      "inputs": [],
      "name": "MINTER_ROLE",
      "outputs": [
        {
          "internalType": "bytes32",
          "name": "",
          "type": "bytes32"
        }
      ],
      "stateMutability": "view",
      "type": "function"
    },
    {
      "inputs": [
        {
          "internalType": "address",
          "name": "to",
          "type": "address"
        },
        {
          "internalType": "uint256",
          "name": "tokenId",
          "type": "uint256"
        }
      ],
      "name": "approve",
      "outputs": [],
      "stateMutability": "nonpayable",
      "type": "function"
    },
    {
      "inputs": [
        {
          "internalType": "address",
          "name": "owner",
          "type": "address"
        }
      ],
      "name": "balanceOf",
      "outputs": [
        {
          "internalType": "uint256",
          "name": "",
          "type": "uint256"
        }
      ],
      "stateMutability": "view",
      "type": "function"
    },
    {
      "inputs": [
        {
          "internalType": "uint256",
          "name": "tokenId",
          "type": "uint256"
        }
      ],
      "name": "getApproved",
      "outputs": [
        {
          "internalType": "address",
          "name": "",
          "type": "address"
        }
      ],
      "stateMutability": "view",
      "type": "function"
    },
    {
      "inputs": [],
      "name": "getBaseURI",
      "outputs": [
        {
          "internalType": "string",
          "name": "",
          "type": "string"
        }
      ],
      "stateMutability": "view",
      "type": "function"
    },
    {
      "inputs": [
        {
          "internalType": "bytes32",
          "name": "role",
          "type": "bytes32"
        }
      ],
      "name": "getRoleAdmin",
      "outputs": [
        {
          "internalType": "bytes32",
          "name": "",
          "type": "bytes32"
        }
      ],
      "stateMutability": "view",
      "type": "function"
    },
    {
      "inputs": [
        {
          "internalType": "bytes32",
          "name": "role",
          "type": "bytes32"
        },
        {
          "internalType": "address",
          "name": "account",
          "type": "address"
        }
      ],
      "name": "grantRole",
      "outputs": [],
      "stateMutability": "nonpayable",
      "type": "function"
    },
    {
      "inputs": [
        {
          "internalType": "bytes32",
          "name": "role",
          "type": "bytes32"
        },
        {
          "internalType": "address",
          "name": "account",
          "type": "address"
        }
      ],
      "name": "hasRole",
      "outputs": [
        {
          "internalType": "bool",
          "name": "",
          "type": "bool"
        }
      ],
      "stateMutability": "view",
      "type": "function"
    },
    {
      "inputs": [
        {
          "internalType": "address",
          "name": "owner",
          "type": "address"
        },
        {
          "internalType": "address",
          "name": "operator",
          "type": "address"
        }
      ],
      "name": "isApprovedForAll",
      "outputs": [
        {
          "internalType": "bool",
          "name": "",
          "type": "bool"
        }
      ],
      "stateMutability": "view",
      "type": "function"
    },
    {
      "inputs": [],
      "name": "isSoldOut",
      "outputs": [
        {
          "internalType": "bool",
          "name": "",
          "type": "bool"
        }
      ],
      "stateMutability": "view",
      "type": "function"
    },
    {
      "inputs": [],
      "name": "name",
      "outputs": [
        {
          "internalType": "string",
          "name": "",
          "type": "string"
        }
      ],
      "stateMutability": "view",
      "type": "function"
    },
    {
      "inputs": [
        {
          "internalType": "uint256",
          "name": "tokenId",
          "type": "uint256"
        }
      ],
      "name": "ownerOf",
      "outputs": [
        {
          "internalType": "address",
          "name": "",
          "type": "address"
        }
      ],
      "stateMutability": "view",
      "type": "function"
    },
    {
      "inputs": [],
      "name": "remainingSupply",
      "outputs": [
        {
          "internalType": "uint256",
          "name": "",
          "type": "uint256"
        }
      ],
      "stateMutability": "view",
      "type": "function"
    },
    {
      "inputs": [
        {
          "internalType": "bytes32",
          "name": "role",
          "type": "bytes32"
        },
        {
          "internalType": "address",
          "name": "callerConfirmation",
          "type": "address"
        }
      ],
      "name": "renounceRole",
      "outputs": [],
      "stateMutability": "nonpayable",
      "type": "function"
    },
    {
      "inputs": [
        {
          "internalType": "bytes32",
          "name": "role",
          "type": "bytes32"
        },
        {
          "internalType": "address",
          "name": "account",
          "type": "address"
        }
      ],
      "name": "revokeRole",
      "outputs": [],
      "stateMutability": "nonpayable",
      "type": "function"
    },
    {
      "inputs": [
        {
          "internalType": "address",
          "name": "to",
          "type": "address"
        }
      ],
      "name": "safeMint",
      "outputs": [
        {
          "internalType": "uint256",
          "name": "",
          "type": "uint256"
        }
      ],
      "stateMutability": "nonpayable",
      "type": "function"
    },
    {
      "inputs": [
        {
          "internalType": "address",
          "name": "to",
          "type": "address"
        },
        {
          "internalType": "uint256",
          "name": "amount",
          "type": "uint256"
        }
      ],
      "name": "safeMintBatch",
      "outputs": [
        {
          "internalType": "uint256[]",
          "name": "tokenIds",
          "type": "uint256[]"
        }
      ],
      "stateMutability": "nonpayable",
      "type": "function"
    },
    {
      "inputs": [
        {
          "internalType": "address",
          "name": "from",
          "type": "address"
        },
        {
          "internalType": "address",
          "name": "to",
          "type": "address"
        },
        {
          "internalType": "uint256",
          "name": "tokenId",
          "type": "uint256"
        }
      ],
      "name": "safeTransferFrom",
      "outputs": [],
      "stateMutability": "nonpayable",
      "type": "function"
    },
    {
      "inputs": [
        {
          "internalType": "address",
          "name": "from",
          "type": "address"
        },
        {
          "internalType": "address",
          "name": "to",
          "type": "address"
        },
        {
          "internalType": "uint256",
          "name": "tokenId",
          "type": "uint256"
        },
        {
          "internalType": "bytes",
          "name": "data",
          "type": "bytes"
        }
      ],
      "name": "safeTransferFrom",
      "outputs": [],
      "stateMutability": "nonpayable",
      "type": "function"
    },
    {
      "inputs": [
        {
          "internalType": "address",
          "name": "operator",
          "type": "address"
        },
        {
          "internalType": "bool",
          "name": "approved",
          "type": "bool"
        }
      ],
      "name": "setApprovalForAll",
      "outputs": [],
      "stateMutability": "nonpayable",
      "type": "function"
    },
    {
      "inputs": [
        {
          "internalType": "string",
          "name": "baseURI",
          "type": "string"
        }
      ],
      "name": "setBaseURI",
      "outputs": [],
      "stateMutability": "nonpayable",
      "type": "function"
    },
    {
      "inputs": [
        {
          "internalType": "uint256",
          "name": "tokenId",
          "type": "uint256"
        },
        {
          "internalType": "uint256",
          "name": "metadataIndex",
          "type": "uint256"
        }
      ],
      "name": "setTokenMetadata",
      "outputs": [],
      "stateMutability": "nonpayable",
      "type": "function"
    },
    {
      "inputs": [
        {
          "internalType": "uint256[]",
          "name": "tokenIds",
          "type": "uint256[]"
        },
        {
          "internalType": "uint256[]",
          "name": "metadataIndices",
          "type": "uint256[]"
        }
      ],
      "name": "setTokenMetadataBatch",
      "outputs": [],
      "stateMutability": "nonpayable",
      "type": "function"
    },
    {
      "inputs": [
        {
          "internalType": "uint256",
          "name": "tokenId",
          "type": "uint256"
        },
        {
          "internalType": "string",
          "name": "uri",
          "type": "string"
        }
      ],
      "name": "setTokenURI",
      "outputs": [],
      "stateMutability": "nonpayable",
      "type": "function"
    },
    {
      "inputs": [
        {
          "internalType": "bytes4",
          "name": "interfaceId",
          "type": "bytes4"
        }
      ],
      "name": "supportsInterface",
      "outputs": [
        {
          "internalType": "bool",
          "name": "",
          "type": "bool"
        }
      ],
      "stateMutability": "view",
      "type": "function"
    },
    {
      "inputs": [],
      "name": "symbol",
      "outputs": [
        {
          "internalType": "string",
          "name": "",
          "type": "string"
        }
      ],
      "stateMutability": "view",
      "type": "function"
    },
    {
      "inputs": [
        {
          "internalType": "uint256",
          "name": "tokenId",
          "type": "uint256"
        }
      ],
      "name": "tokenURI",
      "outputs": [
        {
          "internalType": "string",
          "name": "",
          "type": "string"
        }
      ],
      "stateMutability": "view",
      "type": "function"
    },
    {
      "inputs": [],
      "name": "totalSupply",
      "outputs": [
        {
          "internalType": "uint256",
          "name": "",
          "type": "uint256"
        }
      ],
      "stateMutability": "view",
      "type": "function"
    },
    {
      "inputs": [
        {
          "internalType": "address",
          "name": "from",
          "type": "address"
        },
        {
          "internalType": "address",
          "name": "to",
          "type": "address"
        },
        {
          "internalType": "uint256",
          "name": "tokenId",
          "type": "uint256"
        }
      ],
      "name": "transferFrom",
      "outputs": [],
      "stateMutability": "nonpayable",
      "type": "function"
    }
  ],
  "bytecode": "0x608060405234801561000f575f5ffd5b506040516121a53803806121a583398101604081905261002e9161019d565b6040518060400160405280600d81526020016c47656e65736973204d6563686160981b81525060405180604001604052806006815260200165474d4543484160d01b815250815f90816100819190610266565b50600161008e8282610266565b5061009d91505f9050836100d5565b506100c87f9f2df0fed2c77648de5860a4cc508cd0818c85b8b8a1ab4ceeef8d981c8956a6826100d5565b5050600160085550610320565b5f8281526007602090815260408083206001600160a01b038516845290915281205460ff16610179575f8381526007602090815260408083206001600160a01b03861684529091529020805460ff191660011790556101313390565b6001600160a01b0316826001600160a01b0316847f2f8788117e7eff1d82e926ec794901d17c78024a50270940304540a733656f0d60405160405180910390a450600161017c565b505f5b92915050565b80516001600160a01b0381168114610198575f5ffd5b919050565b5f5f604083850312156101ae575f5ffd5b6101b783610182565b91506101c560208401610182565b90509250929050565b634e487b7160e01b5f52604160045260245ffd5b600181811c908216806101f657607f821691505b60208210810361021457634e487b7160e01b5f52602260045260245ffd5b50919050565b601f82111561026157805f5260205f20601f840160051c8101602085101561023f5750805b601f840160051c820191505b8181101561025e575f815560010161024b565b50505b505050565b81516001600160401b0381111561027f5761027f6101ce565b6102938161028d84546101e2565b8461021a565b6020601f8211600181146102c5575f83156102ae5750848201515b5f19600385901b1c1916600184901b17845561025e565b5f84815260208120601f198516915b828110156102f457878501518255602094850194600190920191016102d4565b508482101561031157868401515f19600387901b60f8161c191681555b50505050600190811b01905550565b611e788061032d5f395ff3fe608060405234801561000f575f5ffd5b50600436106101dc575f3560e01c80634bc9624811610109578063a217fddf1161009e578063d53913931161006e578063d5391393146103f9578063d547741f1461040d578063da0239a614610420578063e985e9c514610428575f5ffd5b8063a217fddf146103b9578063a22cb465146103c0578063b88d4fde146103d3578063c87b56dd146103e6575f5ffd5b8063714c5398116100d9578063714c53981461038357806379ff0c3d1461038b57806391d148541461039e57806395d89b41146103b1575f5ffd5b80634bc962481461032a57806355f804b31461034a5780636352211e1461035d57806370a0823114610370575f5ffd5b806323b872dd1161017f57806332cb6b0c1161014f57806332cb6b0c146102e957806336568abe146102f157806340d097c31461030457806342842e0e14610317575f5ffd5b806323b872dd14610299578063248a9ca3146102ac5780632da5ea17146102ce5780632f2ff15d146102d6575f5ffd5b8063095ea7b3116101ba578063095ea7b314610248578063162094c41461025d57806317a97cd71461027057806318160ddd14610283575f5ffd5b806301ffc9a7146101e057806306fdde0314610208578063081812fc1461021d575b5f5ffd5b6101f36101ee3660046116b3565b61043b565b60405190151581526020015b60405180910390f35b61021061044b565b6040516101ff91906116fc565b61023061022b36600461170e565b6104da565b6040516001600160a01b0390911681526020016101ff565b61025b610256366004611740565b610501565b005b61025b61026b366004611824565b610510565b61025b61027e366004611868565b610529565b61028b61063f565b6040519081526020016101ff565b61025b6102a7366004611888565b610654565b61028b6102ba36600461170e565b5f9081526007602052604090206001015490565b6101f36106dd565b61025b6102e43660046118c2565b6106ef565b61028b601481565b61025b6102ff3660046118c2565b610713565b61028b6103123660046118ec565b610746565b61025b610325366004611888565b6107a9565b61033d610338366004611740565b6107c3565b6040516101ff9190611905565b61025b610358366004611947565b610910565b61023061036b36600461170e565b610962565b61028b61037e3660046118ec565b61096c565b6102106109b1565b61025b6103993660046119f9565b6109c0565b6101f36103ac3660046118c2565b610b8f565b610210610bb9565b61028b5f81565b61025b6103ce366004611a54565b610bc8565b61025b6103e1366004611a8d565b610bd3565b6102106103f436600461170e565b610beb565b61028b5f516020611e235f395f51905f5281565b61025b61041b3660046118c2565b610bf6565b61028b610c1a565b6101f3610436366004611b04565b610c2e565b5f61044582610c5b565b92915050565b60605f805461045990611b2c565b80601f016020809104026020016040519081016040528092919081815260200182805461048590611b2c565b80156104d05780601f106104a7576101008083540402835291602001916104d0565b820191905f5260205f20905b8154815290600101906020018083116104b357829003601f168201915b5050505050905090565b5f6104e482610c7f565b505f828152600460205260409020546001600160a01b0316610445565b61050c828233610cb7565b5050565b5f61051a81610cc4565b6105248383610cd1565b505050565b5f516020611e235f395f51905f5261054081610cc4565b5f838152600260205260409020546001600160a01b031661057c5760405162461bcd60e51b815260040161057390611b5e565b60405180910390fd5b6001821015801561058e575060148211155b6105aa5760405162461bcd60e51b815260040161057390611ba0565b5f6105b483610d19565b6040516020016105c49190611bfb565b60405160208183030381529060405290506105df8482610cd1565b5f848152600260205260409020546001600160a01b03166001600160a01b0316847fb67b72f15550cd5df5ea68850086c561a5a8ba38c6dfc4910b103a868e63b0718560405161063191815260200190565b60405180910390a350505050565b5f600160085461064f9190611c2f565b905090565b6001600160a01b03821661067d57604051633250574960e11b81525f6004820152602401610573565b5f610689838333610da9565b9050836001600160a01b0316816001600160a01b0316146106d7576040516364283d7b60e01b81526001600160a01b0380861660048301526024820184905282166044820152606401610573565b50505050565b5f60146106e861063f565b1015905090565b5f8281526007602052604090206001015461070981610cc4565b6106d78383610e9b565b6001600160a01b038116331461073c5760405163334bd91960e11b815260040160405180910390fd5b6105248282610f2c565b5f5f516020611e235f395f51905f5261075e81610cc4565b60085460148111156107825760405162461bcd60e51b815260040161057390611c42565b60088054905f61079183611c83565b91905055506107a08482610f97565b91505b50919050565b61052483838360405180602001604052805f815250610bd3565b60605f516020611e235f395f51905f526107dc81610cc4565b5f831180156107ec5750600a8311155b6108385760405162461bcd60e51b815260206004820152601c60248201527f47656e657369734d656368613a20496e76616c696420616d6f756e74000000006044820152606401610573565b601460018460085461084a9190611c9b565b6108549190611c2f565b11156108725760405162461bcd60e51b815260040161057390611c42565b8267ffffffffffffffff81111561088b5761088b611768565b6040519080825280602002602001820160405280156108b4578160200160208202803683370190505b5091505f5b8381101561090857600880549081905f6108d283611c83565b91905055506108e18682610f97565b808483815181106108f4576108f4611cae565b6020908102919091010152506001016108b9565b505092915050565b5f61091a81610cc4565b60096109268382611d06565b507f6741b2fc379fad678116fe3d4d4b9a1a184ab53ba36b86ad0fa66340b1ab41ad8260405161095691906116fc565b60405180910390a15050565b5f61044582610c7f565b5f6001600160a01b038216610996576040516322718ad960e21b81525f6004820152602401610573565b506001600160a01b03165f9081526003602052604090205490565b60606009805461045990611b2c565b5f516020611e235f395f51905f526109d781610cc4565b8151835114610a345760405162461bcd60e51b8152602060048201526024808201527f47656e657369734d656368613a20417272617973206c656e677468206d69736d6044820152630c2e8c6d60e31b6064820152608401610573565b5f5b83518110156106d7575f848281518110610a5257610a52611cae565b602002602001015190505f848381518110610a6f57610a6f611cae565b602002602001015190505f6001600160a01b0316610aa1835f908152600260205260409020546001600160a01b031690565b6001600160a01b031603610ac75760405162461bcd60e51b815260040161057390611b5e565b60018110158015610ad9575060148111155b610af55760405162461bcd60e51b815260040161057390611ba0565b5f610aff82610d19565b604051602001610b0f9190611bfb565b6040516020818303038152906040529050610b2a8382610cd1565b5f838152600260205260409020546001600160a01b03166001600160a01b0316837fb67b72f15550cd5df5ea68850086c561a5a8ba38c6dfc4910b103a868e63b07184604051610b7c91815260200190565b60405180910390a3505050600101610a36565b5f9182526007602090815260408084206001600160a01b0393909316845291905290205460ff1690565b60606001805461045990611b2c565b61050c338383610fb0565b610bde848484610654565b6106d7338585858561104e565b606061044582611176565b5f82815260076020526040902060010154610c1081610cc4565b6106d78383610f2c565b5f610c2361063f565b61064f906014611c2f565b6001600160a01b039182165f90815260056020908152604080832093909416825291909152205460ff1690565b5f6001600160e01b03198216637965db0b60e01b1480610445575061044582611275565b5f818152600260205260408120546001600160a01b03168061044557604051637e27328960e01b815260048101849052602401610573565b6105248383836001611299565b610cce813361139d565b50565b5f828152600660205260409020610ce88282611d06565b506040518281527ff8e1a15aba9398e019f0b49df1a4fde98ee17ae345cb5f6b5e2c27f5033e8ce790602001610956565b60605f610d25836113d6565b60010190505f8167ffffffffffffffff811115610d4457610d44611768565b6040519080825280601f01601f191660200182016040528015610d6e576020820181803683370190505b5090508181016020015b5f19016f181899199a1a9b1b9c1cb0b131b232b360811b600a86061a8153600a8504945084610d7857509392505050565b5f828152600260205260408120546001600160a01b0390811690831615610dd557610dd58184866114ad565b6001600160a01b03811615610e0f57610df05f855f5f611299565b6001600160a01b0381165f90815260036020526040902080545f190190555b6001600160a01b03851615610e3d576001600160a01b0385165f908152600360205260409020805460010190555b5f8481526002602052604080822080546001600160a01b0319166001600160a01b0389811691821790925591518793918516917fddf252ad1be2c89b69c2b068fc378daa952ba7f163c4a11628f55a4df523b3ef91a4949350505050565b5f610ea68383610b8f565b610f25575f8381526007602090815260408083206001600160a01b03861684529091529020805460ff19166001179055610edd3390565b6001600160a01b0316826001600160a01b0316847f2f8788117e7eff1d82e926ec794901d17c78024a50270940304540a733656f0d60405160405180910390a4506001610445565b505f610445565b5f610f378383610b8f565b15610f25575f8381526007602090815260408083206001600160a01b0386168085529252808320805460ff1916905551339286917ff6391f5c32d9c69d2a47ea670b442974b53935d1edc7fd64eb21e047a839171b9190a4506001610445565b61050c828260405180602001604052805f815250611511565b6001600160a01b038216610fe257604051630b61174360e31b81526001600160a01b0383166004820152602401610573565b6001600160a01b038381165f81815260056020908152604080832094871680845294825291829020805460ff191686151590811790915591519182527f17307eab39ab6107e8899845ad3d59bd9653f200f220920489ca2b5937696c31910160405180910390a3505050565b6001600160a01b0383163b1561116f57604051630a85bd0160e11b81526001600160a01b0384169063150b7a0290611090908890889087908790600401611dc1565b6020604051808303815f875af19250505080156110ca575060408051601f3d908101601f191682019092526110c791810190611df3565b60015b611131573d8080156110f7576040519150601f19603f3d011682016040523d82523d5f602084013e6110fc565b606091505b5080515f0361112957604051633250574960e11b81526001600160a01b0385166004820152602401610573565b805160208201fd5b6001600160e01b03198116630a85bd0160e11b1461116d57604051633250574960e11b81526001600160a01b0385166004820152602401610573565b505b5050505050565b606061118182610c7f565b505f828152600660205260408120805461119a90611b2c565b80601f01602080910402602001604051908101604052809291908181526020018280546111c690611b2c565b80156112115780601f106111e857610100808354040283529160200191611211565b820191905f5260205f20905b8154815290600101906020018083116111f457829003601f168201915b505050505090505f6112216109b1565b905080515f03611232575092915050565b81511561126457808260405160200161124c929190611e0e565b60405160208183030381529060405292505050919050565b61126d84611528565b949350505050565b5f6001600160e01b03198216632483248360e11b148061044557506104458261158d565b80806112ad57506001600160a01b03821615155b1561136e575f6112bc84610c7f565b90506001600160a01b038316158015906112e85750826001600160a01b0316816001600160a01b031614155b80156112fb57506112f98184610c2e565b155b156113245760405163a9fbf51f60e01b81526001600160a01b0384166004820152602401610573565b811561136c5783856001600160a01b0316826001600160a01b03167f8c5be1e5ebec7d5bd14f71427d1e84f3dd0314c0f7b2291e5b200ac8c7c3b92560405160405180910390a45b505b50505f90815260046020526040902080546001600160a01b0319166001600160a01b0392909216919091179055565b6113a78282610b8f565b61050c5760405163e2517d3f60e01b81526001600160a01b038216600482015260248101839052604401610573565b5f8072184f03e93ff9f4daa797ed6e38ed64bf6a1f0160401b83106114145772184f03e93ff9f4daa797ed6e38ed64bf6a1f0160401b830492506040015b6d04ee2d6d415b85acef81000000008310611440576d04ee2d6d415b85acef8100000000830492506020015b662386f26fc10000831061145e57662386f26fc10000830492506010015b6305f5e1008310611476576305f5e100830492506008015b612710831061148a57612710830492506004015b6064831061149c576064830492506002015b600a83106104455760010192915050565b6114b88383836115dc565b610524576001600160a01b0383166114e657604051637e27328960e01b815260048101829052602401610573565b60405163177e802f60e01b81526001600160a01b038316600482015260248101829052604401610573565b61151b838361163d565b610524335f85858561104e565b606061153382610c7f565b505f61153d6109b1565b90505f81511161155b5760405180602001604052805f815250611586565b8061156584610d19565b604051602001611576929190611e0e565b6040516020818303038152906040525b9392505050565b5f6001600160e01b031982166380ac58cd60e01b14806115bd57506001600160e01b03198216635b5e139f60e01b145b8061044557506301ffc9a760e01b6001600160e01b0319831614610445565b5f6001600160a01b0383161580159061126d5750826001600160a01b0316846001600160a01b0316148061161557506116158484610c2e565b8061126d5750505f908152600460205260409020546001600160a01b03908116911614919050565b6001600160a01b03821661166657604051633250574960e11b81525f6004820152602401610573565b5f61167283835f610da9565b90506001600160a01b03811615610524576040516339e3563760e11b81525f6004820152602401610573565b6001600160e01b031981168114610cce575f5ffd5b5f602082840312156116c3575f5ffd5b81356115868161169e565b5f81518084528060208401602086015e5f602082860101526020601f19601f83011685010191505092915050565b602081525f61158660208301846116ce565b5f6020828403121561171e575f5ffd5b5035919050565b80356001600160a01b038116811461173b575f5ffd5b919050565b5f5f60408385031215611751575f5ffd5b61175a83611725565b946020939093013593505050565b634e487b7160e01b5f52604160045260245ffd5b604051601f8201601f1916810167ffffffffffffffff811182821017156117a5576117a5611768565b604052919050565b5f5f67ffffffffffffffff8411156117c7576117c7611768565b50601f8301601f19166020016117dc8161177c565b9150508281528383830111156117f0575f5ffd5b828260208301375f602084830101529392505050565b5f82601f830112611815575f5ffd5b611586838335602085016117ad565b5f5f60408385031215611835575f5ffd5b82359150602083013567ffffffffffffffff811115611852575f5ffd5b61185e85828601611806565b9150509250929050565b5f5f60408385031215611879575f5ffd5b50508035926020909101359150565b5f5f5f6060848603121561189a575f5ffd5b6118a384611725565b92506118b160208501611725565b929592945050506040919091013590565b5f5f604083850312156118d3575f5ffd5b823591506118e360208401611725565b90509250929050565b5f602082840312156118fc575f5ffd5b61158682611725565b602080825282518282018190525f918401906040840190835b8181101561193c57835183526020938401939092019160010161191e565b509095945050505050565b5f60208284031215611957575f5ffd5b813567ffffffffffffffff81111561196d575f5ffd5b61126d84828501611806565b5f82601f830112611988575f5ffd5b813567ffffffffffffffff8111156119a2576119a2611768565b8060051b6119b26020820161177c565b918252602081850181019290810190868411156119cd575f5ffd5b6020860192505b838310156119ef5782358252602092830192909101906119d4565b9695505050505050565b5f5f60408385031215611a0a575f5ffd5b823567ffffffffffffffff811115611a20575f5ffd5b611a2c85828601611979565b925050602083013567ffffffffffffffff811115611a48575f5ffd5b61185e85828601611979565b5f5f60408385031215611a65575f5ffd5b611a6e83611725565b915060208301358015158114611a82575f5ffd5b809150509250929050565b5f5f5f5f60808587031215611aa0575f5ffd5b611aa985611725565b9350611ab760208601611725565b925060408501359150606085013567ffffffffffffffff811115611ad9575f5ffd5b8501601f81018713611ae9575f5ffd5b611af8878235602084016117ad565b91505092959194509250565b5f5f60408385031215611b15575f5ffd5b611b1e83611725565b91506118e360208401611725565b600181811c90821680611b4057607f821691505b6020821081036107a357634e487b7160e01b5f52602260045260245ffd5b60208082526022908201527f47656e657369734d656368613a20546f6b656e20646f6573206e6f74206578696040820152611cdd60f21b606082015260800190565b60208082526024908201527f47656e657369734d656368613a20496e76616c6964206d6574616461746120696040820152630dcc8caf60e31b606082015260800190565b5f81518060208401855e5f93019283525090919050565b5f611c068284611be4565b64173539b7b760d91b81526005019392505050565b634e487b7160e01b5f52601160045260245ffd5b8181038181111561044557610445611c1b565b60208082526021908201527f47656e657369734d656368613a204d617820737570706c7920657863656564656040820152601960fa1b606082015260800190565b5f60018201611c9457611c94611c1b565b5060010190565b8082018082111561044557610445611c1b565b634e487b7160e01b5f52603260045260245ffd5b601f82111561052457805f5260205f20601f840160051c81016020851015611ce75750805b601f840160051c820191505b8181101561116f575f8155600101611cf3565b815167ffffffffffffffff811115611d2057611d20611768565b611d3481611d2e8454611b2c565b84611cc2565b6020601f821160018114611d66575f8315611d4f5750848201515b5f19600385901b1c1916600184901b17845561116f565b5f84815260208120601f198516915b82811015611d955787850151825560209485019460019092019101611d75565b5084821015611db257868401515f19600387901b60f8161c191681555b50505050600190811b01905550565b6001600160a01b03858116825284166020820152604081018390526080606082018190525f906119ef908301846116ce565b5f60208284031215611e03575f5ffd5b81516115868161169e565b5f61126d611e1c8386611be4565b84611be456fe9f2df0fed2c77648de5860a4cc508cd0818c85b8b8a1ab4ceeef8d981c8956a6a264697066735822122080406bb03ebb26fab507d13140410c6b2a047854a5e39a9992cd03da36f23c9064736f6c634300081c0033",
  "linkReferences": {},
  "deployedLinkReferences": {},
  "immutableReferences": {},
  "inputSourceName": "project/contracts/GenesisMecha.sol",
  "buildInfoId": "solc-0_8_28-4fe2f1af48a214a100152ed9933eb3edf6def319"
}